:09000000020EDF0210DED20C3208
:03000B00020006EA
:10001300021127EC4D6011E8497017ED33EC3304FE
:10002300600DE4FCFFFEFD22E933E8330470F802BF
:10003300029C12026758046009E4CC24815006280C
:1000430050090202A62840030202A3C0E0EB4A7053
:1000530044B98006D0E0FB020292EF4E701CBD80D3
:1000630008EBFFEAFEE9FD80EBE98DF0A4FEE5F085
:100073000200FFE9CDF9EAFEEBFFEF89F0A4FCE50E
:10008300F0CE89F0A42EFFE435F0CD89F0A42DFE47
:10009300E435F08067EF4E7005BD80D780C3EF8BEA
:1000A300F0A4ACF0EE8BF0A42CFCE435F0F8EF8A6E
:1000B300F0A42CE5F038FCE433CB8DF0A42CFCE564
:1000C300F03BF8EE8AF0A42CFCE5F038F8E433CFEB
:1000D30089F0A42CFCE5F038CF3400CE89F0A42FAE
:1000E300FFE5F03EFEE433C98DF0A42EFEE5F039C2
:1000F300CD8AF0A42FFFE5F03EFEE43DFD33D0E0D2
:10010300FB50070BBB000F0202A6EC2CFCEF33FFE6
:10011300EE33FEED33FD02027E0202A6EC5D0460C7
:1001230005E85904700302029C120267580460F642
:10013300EC4860F2EC7004FDFEFF22C860DB248112
:10014300C85009C398600250060202A39850CAF52A
:1001530082E9294B4A7005AB8202029275F0007C5A
:100163001A7880C3EF9BEE9AED99400DC3EF9BFF86
:10017300EE9AFEED99FDE842F0DC23ACF0D0E0FF0F
:10018300D0E0FED0E0FDAB8220E7101BEB60BAECC1
:100193002CFCEF33FFEE33FEED33FD02027EE8036A
:1001A300F830E705C0F075F000EF2FFFEE33FEEDFA
:1001B30033FD40B830E7C280AA74F8CC6480CCC861
:1001C3006480C8F582046043C3EB9FF5F0EA9E4266
:1001D300F0E99D42F0E89C45F060305018E5825FFD
:1001E300FFE582F42B5582FB50210ABA001D09B9A1
:1001F3000019088016E5825BFBE582F42F5582FF28
:1002030050090EBE00050DBD00010CC3EB9FF5F0B8
:10021300EA9E42F0E99D42F0E89C45F06007CC4835
:1002230020E701B3EC2275F020800E75F0108005F5
:1002330075F0087D007E007F003392D530D5031220
:1002430005B3EC334010EF33FFEE33FEED33FDEC3B
:1002530033FCD5F0ED22E5F0247EA2D513CC92E752
:10026300CDCEFF22E9D2E7C933E833F892D5EDD2F8
:10027300E7CD33EC33FC5002B2D522EC30E7100F5C
:10028300BF000C0EBE00080DBD00040BEB6014A2F2
:10029300D5EB13FCED92E7FD2274FFFCFDFEFF227C
:1002A300E480F8A2D574FF13FC7D80E480EFF9208D
:1002B300E73624F950037907E4F42402FBE58215B9
:1002C3008270021583DBF6E024FB501BE96014E423
:1002D300F0E582158270021583E004F0B40A08E4A5
:1002E300F0D9EE7401F00A22C2D522ED33EC339239
:1002F300D5FA602AB4FF33EDC2E77BFF60067A03C9
:100303007913E4227A03791C20D5047A037917221E
:100313004E614E002B494E46002D494E4600E47A6D
:1003230008F0A3DAFC7B00740722C083C082ECC010
:10033300E0EDC0E0EEC0E0EFC0E0EA75F010A4CA63
:10034300ABF075F04DA42BFBE435F0FCEA2410FA76
:10035300EB34C5FBEC34D9FCEDC2E7FF75F056A4D2
:10036300F42411C5F0F434C58FF0A42AE5F03BE47E
:100373003CF020E71412051BD0E0FFD0E0FED0E0F4
:10038300FDD0E0FC12011F8014F40412051BD0E021
:10039300FFD0E0FED0E0FDD0E0FC120016D082D00A
:1003A30083E0FAEDD2E7CD33EC332482FBE4C3CF11
:1003B30033CFCE33CECD33CD33DBF37B0775F00AAA
:1003C300846004F0A31B0AE5F0F0A38FF0740AA481
:1003D300FFACF08EF0740AA42CFEACF050010C8D2F
:1003E300F0740AA42CFDE435F0F0A3DBDE740722DD
:1003F30002029CE86480F8E933E83360110460F09A
:10040300ED33EC337009E8FCE9FDEAFEEBFF22046F
:1004130060DED3EB9FEA9EE99DE8C2E78CF0C2F76A
:1004230095F0400CE8CCF8E9CDF9EACEFAEBCFFB36
:1004330012026785D0F05804700320D5B3E8047026
:10044300075002B2D50202A692D5EC0460F7E4CCC1
:10045300C0E0C398F8603B94186008400DD0E0FBFF
:1004630002027EE4FBFAC9FC8028E830E406E4C912
:10047300FBE4CAFCE830E305E4C9CACBFCE8540753
:100483006010F8C3E913F9EA13FAEB13FBEC13FC5E
:10049300D8F130F52FC3E49CFCEF9BFFEE9AFEED01
:1004A30099FDD0E0FBEF4E4D4C701222DB030202AC
:1004B300A3EC2CFCEF33FFEE33FEED33FDED30E721
:1004C300EB02027EEF2BFFEE3AFEED39FDD0E0FBAF
:1004D30050130BBB00030202A6ED13FDEE13FEEF58
:1004E30013FFEC13FC02027E3F800000412000005A
:1004F30042C80000447A0000461C400047C3500035
:10050300497424004B1896804CBEBC205A0E1BCA5B
:100513006753C21C749DC5AEFB60065407601C2361
:1005230023120549EB5438600912053512054412AC
:100533000016ECF8EDF9EEFAEFCB22EB120544804E
:10054300F1543803241C9004EBFE93FC0EEE93FD50
:100553000EEE930ECE93FF22BB010689828A83E0BF
:10056300225002E722BBFE02E32289828A83E493BC
:1005730022BB010CE58229F582E5833AF583E0226B
:100583005006E92582F8E622BBFE06E92582F8E259
:1005930022E58229F582E5833AF583E49322BB01C0
:1005A3000689828A83F0225002F722BBFE01F322DE
:1005B300C3E49FFFE49EFEE49DFDE49CFC22ECF07B
:1005C300A3EDF0A3EEF0A3EFF022A8828583F0D091
:1005D30083D0821205E41205E41205E41205E4E473
:1005E30073E493A3C583C5F0C583C8C582C8F0A3CC
:1005F300C583C5F0C583C8C582C822F8E0FBA3A3A1
:10060300E0F925F0F0E582158270021583E0FA38EF
:10061300F022EBF0A3EAF0A3E9F022D083D082F832
:10062300E4937012740193700DA3A393F874019370
:10063300F5828883E4737402936860EFA3A3A380B5
:10064300DFE5082405F582E43400F583E00508229C
:10065300900002300703900005E475F0011205FED7
:1006630002055B2000E97F2ED2008018EF540F248F
:1006730090D43440D4FF30040BEF24BFB41A00509D
:10068300032461FFE50960021509050CE50C7002FE
:10069300050B30070E900002E475F0011205FEEF22
:1006A3000205A10212E17403D2078003E4C207F535
:1006B30008900002120615E4F509F50BF50CE5099F
:1006C30060077F2012068780F5750AFFC201C2000A
:1006D300C202C203C205C206C208120653FF700D4E
:1006E3003007057F00120698AF0CAE0B22B4255FCE
:1006F300C2D5C204120653FF24D0B40A00501A759F
:10070300F00A780930D50508B6FF0106C6A426F617
:1007130020D5047002D20380D924CFB41A00EF503D
:1007230004C2E5D20402098AD20180C6D20080C085
:10073300D20280BCD2D580BAD20580B47F20120603
:10074300872002077401B5090040F1120644FF1225
:1007530006870206C1D208D2068095120644FB1210
:100763000644FA120644F94A4B700679887A0A7BE2
:10077300FF20022EE509602A7E008E827583001217
:10078300057460060EEE650A70F0C2D5EBC0E0EAB0
:10079300C0E0E9C0E0EE1209EBD0E0F9D0E0FAD016
:1007A300E0FB12055BFF60AAEBC0E0EAC0E0E9C032
:1007B300E0120687D0E02401F9D0E03400FAD0E05B
:1007C300FBE50A0460DCD50AD98087D20280A21235
:1007D30009CD60F7E50A7001041202B1A90A600DA0
:1007E300E50A600914F50A120A75EF60F3EA30E7C7
:1007F30002F404C3995079EAF4250A0430E701E4CA
:1008030004F50A800D1209CD60C1EA050A250A1212
:1008130002B1EA900031F030E701E4250A04D50A79
:1008230004200501141209EBE4C0E0120A759000DC
:1008330031E0601320E70714F012066F802204F002
:10084300D0E014C0E07F0012066FE50A60071206CD
:1008530066150A800B300503120666D0E00206C156
:10086300D0E00480C41209CD609EE50A041202B1EF
:10087300900031EAF0E50A20050260010424041225
:1008830009EB74FF04C0E0120A7512066FE50A2033
:1008930005026003120666D0E0B50AE87F4512063A
:1008A30079900031E07F2B30E7047F2DF404C0E022
:1008B300120687D0E075F00A84C0F0120670D0E00B
:1008C3001206700206C1791080027908C206C208B6
:1008D3008008D2D5790A8004790AC2D5E50A047062
:1008E30002F50AE4FAFDFEFF120644FC7B08200130
:1008F30013120644FD7B1030000A120644FE120652
:1009030044FF7B20EC3382D592D55013C3E43000EF
:10091300069FFFE49EFEE42001039DFDE49CFCE4AE
:10092300CBF8C201EC700CCFCECDCCE824F8F87034
:10093300F38017C3EF33FFEE33FEED33FDEC33FCEF
:10094300EB33FB994002FB0FD8E9EB300105F8D0FC
:10095300E0C448B201C0E00AEC4D4E4F78207B0062
:1009630070C2EAB50A0040BCC0E01209EDD0F0D075
:10097300E0200104C4C0E0C4B201C0F0120670D08C
:10098300F0D5F0EB0206C112061E075E5308C958E4
:10099300072F4C072B4208CD4F08D54408D54907EC
:1009A300444308DB5508084608684507D2470AA8A8
:1009B3005007332D07372E075A2B073B23075820A1
:1009C3000A912A06F34800000752E50AB4FF0375AB
:1009D3000A06120644FC120644FD120644FE1206E1
:1009E30044FF90002A0202EE790AA2D520031430B4
:1009F3000509B910020404B9080104A2D5200602AE
:100A03005001042002689202B509005034C0E07F0F
:100A1300203003197F30A20272067205500F120AAA
:100A230044C202C206C205C2087F30800F300503EC
:100A3300E9C0E0120687300503D0E0F9D0E0B5093C
:100A4300CC3005177F30B9100C1206877F5830045D
:100A5300077F788003B908031206873002057F2DCC
:100A63000206877F202008F87F2B2006F3229202BC
:100A730080CF7F00B40700500B242AF582E43400B2
:100A8300F583E0FF22286E756C6C2900D2011206F3
:100A9300443001F8C201780930D50108F60206F3A3
:100AA3002D504349581206442403B405004001E481
:100AB300900AA393120678743A120678D203750942
:100AC300040208C91213F07FF47E0112136D12138E
:100AD3008BC2937F017E0012132E1212B77F017E09
:100AE3000012136D1211707580FFE4900000F0A3E3
:100AF300F0900000E0FEA3E0FFC39404EE940050E6
:100B030053EF25E0FFEE33FE743B2FF58274003E76
:100B1300F583E0FEA3E04E602B900000E0FEA3E02F
:100B2300FFEE7020EF14600F1460111460132403A0
:100B330070125380FD800D5380F780085380DF804F
:100B43000353807F900001E004F070A5900000E063
:100B530004F0809DE4900000F0A3F0900036E06480
:100B6300026003020C08900000E0FCA3E0FD25E016
:100B7300FFEC33FE743B2FF58274003EF583E0FEF9
:100B8300A3E04E6019D3ED9403EC94005010900051
:100B930001E004F070D0900000E004F080C8900001
:100BA30000E07004A3E064047016900000F0A3F06A
:100BB3001211B87FD07E0712136D121170020CAEA2
:100BC300E4FFFE120D28900001E025E0FF900000F5
:100BD300E033FE743B2FF58274003EF583E4F0A30B
:100BE3007402F0121308900000A3E02431FF120FE7
:100BF3006B7FD07E0712136D121170E4900000F02A
:100C0300A3F0020CAE900036E064016003020CB363
:100C1300900000E0FCA3E0FD25E0FFEC33FE743B15
:100C23002FF58274003EF583E0FEA3E04E6019D3F6
:100C3300ED9403EC94005010900001E004F070D0A8
:100C4300900000E004F080C8900000E07004A3E08E
:100C530064047015900000F0A3F01212007FD07EA0
:100C63000712136D12117080427F007E01120D284E
:100C7300900001E025E0FF900000E033FE743B2F7D
:100C8300F58274003EF583E4F0A304F012108A9019
:100C93000000A3E02431FF120FCC7FD07E07121394
:100CA3006D121170E4900000F0A3F0E4900036F0B0
:100CB3007F2C7E0112136D900034E004F0E0640A8F
:100CC3006003020AEAF01213BF9000371205C1E471
:100CD300FFFE7D707C41900037E0F8A3E0F9A3E0CC
:100CE300FAA3E0FB1201BC402F90003BE0FEA3E01F
:100CF300FF4E6024EF64024E7005FF7E02800F906A
:100D0300003BE07004A3E06401700DFF7E03120D4D
:100D130028E490003BF0A3F09000371205CD0000CB
:100D23000000020AEA900002EEF0A3EFF0C297C2BD
:100D3300B4C2B5E4FDFCC2B5AF0574207E00A807BC
:100D4300088006CEA2E713CE13D8F830E004D2B45D
:100D53008002C2B4000000D2B50000000DBD000146
:100D63000CED64084C70CFD2977F327E0012136D66
:100D7300C297C2B4C2B5E4FCFDC2B5AF0590000290
:100D8300E0FEA3E0A807088005CEC313CE13D8F96D
:100D930030E004D2B48002C2B4000000D2B5000037
:100DA300000DBD00010CED64104C70CDC2B4C2B592
:100DB300E4FCFDC2B5AF0574E07E00A80708800619
:100DC300CEA2E713CE13D8F830E004D2B48002C227
:100DD300B4000000D2B50000000DBD00010CED64AD
:100DE300084C70CFD297C297C2B4C2B5E4FCFDC21F
:100DF300B5AF0574F07E00A807088006CEA2E713FE
:100E0300CE13D8F830E004D2B48002C2B40000009C
:100E1300D2B50000000DBD00010CED64084C70CF8D
:100E2300D29722BBB6D3ADCAB9D3C32100B9ABB2F3
:100E3300DED7CAD4B4B5F7C5E4CFB5CDB300BBB6DE
:100E4300D3ADC1AACFB50054454C3A31353932320E
:100E530038363130393300BBB6D3ADCAB9D3C3A3A7
:100E6300ACC5AECABFA3A100C7EBC7B0CDF9A3BA47
:100E730000BAC5CEBB2000D7A3C4FABDF1C8D5D3F1
:100E8300E4BFEC7E00BBB6D3ADCAB9D3C3A3ACCF2A
:100E9300C8C9FAA3A100B7C7B3A3B1A7C7B8A3AC86
:100EA300C5AECABFA3A100B1BEB9ABB2DEC4BFC752
:100EB300B0CEDEB6E0D3E000B5C4B6D7CEBBA3A1B7
:100EC30000C7EBC4CDD0C4B5C8B400B7C7B3A3B192
:100ED300A7C7B8A3ACCFC8C9FAA3A100787FE4F62B
:100EE300D8FD758121020F26020AC7E493A3F8E413
:100EF30093A34003F68001F208DFF48029E493A36F
:100F0300F85407240CC8C333C4540F4420C8834087
:100F130004F456800146F6DFE4800B010204081056
:100F230020408090134EE47E019360BCA3FF543FA6
:100F330030E509541FFEE493A360010ECF54C0258E
:100F4300E060A840B8E493A3FAE493A3F8E493A37E
:100F5300C8C582C8CAC583CAF0A3C8C582C8CAC5E2
:100F630083CADFE9DEE780BE900002EFF07F011263
:100F730013D07F327E0012132E7F031213D07F32E1
:100F83007E0012132E7F801213D07E0E7F5A121210
:100F9300817F901213D07E0E7F6B1212817F881295
:100FA30013D0900002E0FF1213E07F327E00121391
:100FB3002E7F891213D07E0E7F741212817F9812B6
:100FC30013D07E0E7F7A021281900002EFF07F0130
:100FD3001213D07F327E0012132E7F031213D07FA1
:100FE300327E0012132E7F801213D07E0E7F881262
:100FF30012817F901213D07E0E7F6B1212817F8835
:101003001213D0900002E0FF1213E07F327E001231
:10101300132E7F891213D07E0E7F741212817F9854
:101023001213D07E0E7F7A021281AF8CEFFEAD8A4F
:101033007C00E42DFFEC3E900048F0A3EFF0E4F5D4
:101043008CF58A900048E0FCA3E0FDE412022E7BBD
:10105300297A5C79EF783F120016E4FBFA79C878B5
:101063004212011F90004A1205C1300C0BC20C7BC7
:10107300FF7A1379FF1206AF90004AE0FCA3E0FD6C
:10108300A3E0FEA3E0FF227580FD7F967E0012138E
:101093006D7580F77F967E0012136D7580DF7F96E6
:1010A3007E0012136D75807F7F967E0012136D751F
:1010B30080FE7F967E0012136D7580FB7F967E0007
:1010C30012136D7580EF7F967E0012136D7580BFCE
:1010D3007F967E0012136D7580FF22C0E0C0F0C0C2
:1010E30083C082C0D075D000C000C001C002C0035D
:1010F300C004C005C006C007C2AF7FC87E0012137C
:101103006D9000367402F0D2AFD007D006D005D070
:1011130004D003D002D001D000D0D0D082D083D06D
:10112300F0D0E032C0E0C0F0C083C082C0D075D040
:1011330000C000C001C002C003C004C005C006C097
:1011430007C2AF7FC87E0012136D9000367401F0A2
:10115300D2AFD007D006D005D004D003D002D0013F
:10116300D000D0D0D082D083D0F0D0E0327F011233
:1011730013D07F327E0012132E7F031213D07F32DF
:101183007E0012132E7F801213D07E0E7F26121242
:10119300817F901213D07E0E7F301212817F8812CE
:1011A30013D07E0E7F411212817F981213D07E0ED0
:1011B3007F4A0212817F011213D07F327E00121305
:1011C3002E7F031213D07F327E0012132E7F8012E4
:1011D30013D07E0E7F991212817F901213D07E0E50
:1011E3007FAA1212817F881213D07E0E7FBB121248
:1011F300817F981213D07E0E7FC40212817F011269
:1012030013D07F327E0012132E7F031213D07F324E
:101213007E0012132E7F801213D07E0E7FCE121209
:10122300817F901213D07E0E7FAA1212817F8812C3
:1012330013D07E0E7FBB1212817F981213D07E0EC5
:101243007FC4021281121259EB54F0FF121259AFEC
:1012530003EFC454F0FFE4FDFCAE05EFA8060880DD
:1012630002C333D8FC30E704D2918002C291C29208
:10127300D2920DBD00010CED64084C70DC2290008D
:1012830003EEF0A3EFF0900003E0FEA3E0F5828EFF
:1012930083E493FFD39400401A1213E0900004E018
:1012A30004F07006900003E004F07F327E00121316
:1012B3002E80D322C2947F647E0012132ED2947F99
:1012C300207E4E12132E7F301213D07F327E0012F7
:1012D300132E7F0C1213D07F327E0002132EEFB435
:1012E3000A07740D1212EC740A309811A899B813F6
:1012F3000CC2983098FDA899C298B811F63099FDA0
:10130300C299F59922E4900002F0E4F5807F2C7EE7
:101313000112136D7580FF7F2C7E0112136D9000F7
:1013230002E004F0E0C3940340E022E4FDFCC3EDDB
:101333009FEC9E5015E4FBFA0BBB00010AEB640A19
:101343004A70F50DBD00010C80E42248003B00000B
:101353000001000200014200480000420046000074
:1013630044004A00000000C10C00D3EF9400EE9447
:101373000040147D6E7C00ED1D70011CED4C70F778
:10138300EF1F70E61E80E322758921759850758DD5
:10139300FD758BFDE4F58CF58AD28CD2A9D28ED261
:1013A3009922D29600000000000000000000000017
:1013B300000000000000000000C296221213A530B6
:1013C30095FDD28C2095FDC28C12102D22AB07D235
:1013D300907FF81212487F027E0002132EAB07D2D1
:1013E300907FFA1212487F027E0002132ED2A8D2F7
:1013F30088D2AAD28AD2AFD2BAD2B8222D2D2D2D1D
:031403002D0A00AF
:00000001FF
